0120531084587000PEN20250405001102600100017762                                                                                                           
02VIZCARRA HURTADO JARED EVANS  00078273469PENSION MAR PEN2MARZO20251S1133      00000000004000000000000004000000000000000000008175478712025040501068M%D 
02ESQUIVEL BEDON PEYTON ROUS    00079798398PENSION MAR PEN2MARZO20251S798       0000000000400000000000000400000000000000000007799463121202504050204WNET 
02TORRES ROBLES SARA MARIA ELIZA00091240391PENSION MAR PEN2MARZO20251S673       00000000004000000000000004000000000000000000008173304962025040501069G%I 
02GONZALES MORALES MAXIMILIANO S00061409342PENSION MAR PEN2MARZO20251S362       0000000000420000000000000420000000000000000007799316288202504050204WNET 
03000000004000000000162000000000000162000000000000000000                                                                                                
